{
  "contractName": "SafeMoon",
  "abi": [
    {
      "inputs": [],
      "stateMutability": "nonpayable",
      "type": "constructor"
    },
    {
      "anonymous": false,
      "inputs": [
        {
          "indexed": true,
          "internalType": "address",
          "name": "owner",
          "type": "address"
        },
        {
          "indexed": true,
          "internalType": "address",
          "name": "spender",
          "type": "address"
        },
        {
          "indexed": false,
          "internalType": "uint256",
          "name": "value",
          "type": "uint256"
        }
      ],
      "name": "Approval",
      "type": "event"
    },
    {
      "anonymous": false,
      "inputs": [
        {
          "indexed": true,
          "internalType": "address",
          "name": "from",
          "type": "address"
        },
        {
          "indexed": true,
          "internalType": "address",
          "name": "to",
          "type": "address"
        },
        {
          "indexed": false,
          "internalType": "uint256",
          "name": "value",
          "type": "uint256"
        }
      ],
      "name": "Transfer",
      "type": "event"
    },
    {
      "inputs": [],
      "name": "_taxFee",
      "outputs": [
        {
          "internalType": "uint256",
          "name": "",
          "type": "uint256"
        }
      ],
      "stateMutability": "view",
      "type": "function",
      "constant": true
    },
    {
      "inputs": [
        {
          "internalType": "address",
          "name": "account",
          "type": "address"
        }
      ],
      "name": "balanceOf",
      "outputs": [
        {
          "internalType": "uint256",
          "name": "",
          "type": "uint256"
        }
      ],
      "stateMutability": "view",
      "type": "function",
      "constant": true
    },
    {
      "inputs": [
        {
          "internalType": "uint256",
          "name": "rAmount",
          "type": "uint256"
        }
      ],
      "name": "tokenFromReflection",
      "outputs": [
        {
          "internalType": "uint256",
          "name": "",
          "type": "uint256"
        }
      ],
      "stateMutability": "view",
      "type": "function",
      "constant": true
    },
    {
      "inputs": [],
      "name": "getRtotal",
      "outputs": [
        {
          "internalType": "uint256",
          "name": "",
          "type": "uint256"
        }
      ],
      "stateMutability": "view",
      "type": "function",
      "constant": true
    },
    {
      "inputs": [
        {
          "internalType": "address",
          "name": "recipient",
          "type": "address"
        },
        {
          "internalType": "uint256",
          "name": "amount",
          "type": "uint256"
        }
      ],
      "name": "transfer",
      "outputs": [
        {
          "internalType": "bool",
          "name": "",
          "type": "bool"
        }
      ],
      "stateMutability": "nonpayable",
      "type": "function"
    },
    {
      "inputs": [],
      "name": "_getRate",
      "outputs": [
        {
          "internalType": "uint256",
          "name": "",
          "type": "uint256"
        }
      ],
      "stateMutability": "view",
      "type": "function",
      "constant": true
    },
    {
      "inputs": [
        {
          "internalType": "address",
          "name": "sender",
          "type": "address"
        },
        {
          "internalType": "address",
          "name": "recipient",
          "type": "address"
        },
        {
          "internalType": "uint256",
          "name": "amount",
          "type": "uint256"
        }
      ],
      "name": "transferFrom",
      "outputs": [
        {
          "internalType": "bool",
          "name": "",
          "type": "bool"
        }
      ],
      "stateMutability": "nonpayable",
      "type": "function"
    },
    {
      "inputs": [
        {
          "internalType": "address",
          "name": "spender",
          "type": "address"
        },
        {
          "internalType": "uint256",
          "name": "amount",
          "type": "uint256"
        }
      ],
      "name": "approve",
      "outputs": [
        {
          "internalType": "bool",
          "name": "",
          "type": "bool"
        }
      ],
      "stateMutability": "nonpayable",
      "type": "function"
    },
    {
      "inputs": [],
      "name": "name",
      "outputs": [
        {
          "internalType": "string",
          "name": "",
          "type": "string"
        }
      ],
      "stateMutability": "view",
      "type": "function",
      "constant": true
    },
    {
      "inputs": [],
      "name": "symbol",
      "outputs": [
        {
          "internalType": "string",
          "name": "",
          "type": "string"
        }
      ],
      "stateMutability": "view",
      "type": "function",
      "constant": true
    },
    {
      "inputs": [],
      "name": "decimals",
      "outputs": [
        {
          "internalType": "uint8",
          "name": "",
          "type": "uint8"
        }
      ],
      "stateMutability": "view",
      "type": "function",
      "constant": true
    },
    {
      "inputs": [],
      "name": "totalSupply",
      "outputs": [
        {
          "internalType": "uint256",
          "name": "",
          "type": "uint256"
        }
      ],
      "stateMutability": "view",
      "type": "function",
      "constant": true
    },
    {
      "inputs": [
        {
          "internalType": "address",
          "name": "owner",
          "type": "address"
        },
        {
          "internalType": "address",
          "name": "spender",
          "type": "address"
        }
      ],
      "name": "allowance",
      "outputs": [
        {
          "internalType": "uint256",
          "name": "",
          "type": "uint256"
        }
      ],
      "stateMutability": "view",
      "type": "function",
      "constant": true
    }
  ],
  "bytecode": "0x60806040526103e8600555600554620186a06200001d919062000309565b620186a06200002d91906200028e565b6006556040518060400160405280600881526020017f536166654d6f6f6e000000000000000000000000000000000000000000000000815250600790805190602001906200007d929190620001b0565b506040518060400160405280600881526020017f534146454d4f4f4e00000000000000000000000000000000000000000000000081525060089080519060200190620000cb929190620001b0565b506001600960006101000a81548160ff021916908360ff1602179055506005600a55348015620000fa57600080fd5b506006546000803373ffffffffffffffffffffffffffffffffffffffff1673ffffffffffffffffffffffffffffffffffffffff168152602001908152602001600020819055503373ffffffffffffffffffffffffffffffffffffffff16600073ffffffffffffffffffffffffffffffffffffffff167fddf252ad1be2c89b69c2b068fc378daa952ba7f163c4a11628f55a4df523b3ef600554604051620001a2919062000271565b60405180910390a3620003ce565b828054620001be90620002d3565b90600052602060002090601f016020900481019282620001e257600085556200022e565b82601f10620001fd57805160ff19168380011785556200022e565b828001600101855582156200022e579182015b828111156200022d57825182559160200191906001019062000210565b5b5090506200023d919062000241565b5090565b5b808211156200025c57600081600090555060010162000242565b5090565b6200026b81620002c9565b82525050565b600060208201905062000288600083018462000260565b92915050565b60006200029b82620002c9565b9150620002a883620002c9565b925082821015620002be57620002bd62000341565b5b828203905092915050565b6000819050919050565b60006002820490506001821680620002ec57607f821691505b602082108114156200030357620003026200039f565b5b50919050565b60006200031682620002c9565b91506200032383620002c9565b92508262000336576200033562000370565b5b828206905092915050565b7f4e487b7100000000000000000000000000000000000000000000000000000000600052601160045260246000fd5b7f4e487b7100000000000000000000000000000000000000000000000000000000600052601260045260246000fd5b7f4e487b7100000000000000000000000000000000000000000000000000000000600052602260045260246000fd5b61185680620003de6000396000f3fe608060405234801561001057600080fd5b50600436106100cf5760003560e01c80633b124fe71161008c57806394e107841161006657806394e107841461022a57806395d89b4114610248578063a9059cbb14610266578063dd62ed3e14610296576100cf565b80633b124fe7146101be57806370a08231146101dc5780637a06006e1461020c576100cf565b806306fdde03146100d4578063095ea7b3146100f257806318160ddd1461012257806323b872dd146101405780632d83811914610170578063313ce567146101a0575b600080fd5b6100dc6102c6565b6040516100e991906113e9565b60405180910390f35b61010c60048036038101906101079190610ff9565b610358565b60405161011991906113ce565b60405180910390f35b61012a61036f565b604051610137919061150b565b60405180910390f35b61015a60048036038101906101559190610faa565b610379565b60405161016791906113ce565b60405180910390f35b61018a60048036038101906101859190611035565b610444565b604051610197919061150b565b60405180910390f35b6101a86104b2565b6040516101b59190611526565b60405180910390f35b6101c66104c9565b6040516101d3919061150b565b60405180910390f35b6101f660048036038101906101f19190610f45565b6104cf565b604051610203919061150b565b60405180910390f35b6102146105b9565b604051610221919061150b565b60405180910390f35b6102326105c3565b60405161023f919061150b565b60405180910390f35b6102506105e1565b60405161025d91906113e9565b60405180910390f35b610280600480360381019061027b9190610ff9565b610673565b60405161028d91906113ce565b60405180910390f35b6102b060048036038101906102ab9190610f6e565b61068a565b6040516102bd919061150b565b60405180910390f35b6060600780546102d5906116fa565b80601f0160208091040260200160405190810160405280929190818152602001828054610301906116fa565b801561034e5780601f106103235761010080835404028352916020019161034e565b820191906000526020600020905b81548152906001019060200180831161033157829003601f168201915b5050505050905090565b6000610365338484610711565b6001905092915050565b6000600554905090565b60006103868484846108dc565b6104398433610434856040518060600160405280602881526020016117f960289139600260008b73ffffffffffffffffffffffffffffffffffffffff1673ffffffffffffffffffffffffffffffffffffffff16815260200190815260200160002060003373ffffffffffffffffffffffffffffffffffffffff1673ffffffffffffffffffffffffffffffffffffffff16815260200190815260200160002054610bb49092919063ffffffff16565b610711565b600190509392505050565b600060065482111561048b576040517f08c379a00000000000000000000000000000000000000000000000000000000081526004016104829061142b565b60405180910390fd5b60006104956105c3565b90506104aa8184610c1890919063ffffffff16565b915050919050565b6000600960009054906101000a900460ff16905090565b600a5481565b6000600460008373ffffffffffffffffffffffffffffffffffffffff1673ffffffffffffffffffffffffffffffffffffffff16815260200190815260200160002060009054906101000a900460ff161561056a57600160008373ffffffffffffffffffffffffffffffffffffffff1673ffffffffffffffffffffffffffffffffffffffff1681526020019081526020016000205490506105b4565b6105b16000808473ffffffffffffffffffffffffffffffffffffffff1673ffffffffffffffffffffffffffffffffffffffff16815260200190815260200160002054610444565b90505b919050565b6000600654905090565b60006105dc600554600654610c1890919063ffffffff16565b905090565b6060600880546105f0906116fa565b80601f016020809104026020016040519081016040528092919081815260200182805461061c906116fa565b80156106695780601f1061063e57610100808354040283529160200191610669565b820191906000526020600020905b81548152906001019060200180831161064c57829003601f168201915b5050505050905090565b60006106803384846108dc565b6001905092915050565b6000600260008473ffffffffffffffffffffffffffffffffffffffff1673ffffffffffffffffffffffffffffffffffffffff16815260200190815260200160002060008373ffffffffffffffffffffffffffffffffffffffff1673ffffffffffffffffffffffffffffffffffffffff16815260200190815260200160002054905092915050565b600073ffffffffffffffffffffffffffffffffffffffff168373ffffffffffffffffffffffffffffffffffffffff161415610781576040517f08c379a0000000000000000000000000000000000000000000000000000000008152600401610778906114eb565b60405180910390fd5b600073ffffffffffffffffffffffffffffffffffffffff168273ffffffffffffffffffffffffffffffffffffffff1614156107f1576040517f08c379a00000000000000000000000000000000000000000000000000000000081526004016107e89061144b565b60405180910390fd5b80600260008573ffffffffffffffffffffffffffffffffffffffff1673ffffffffffffffffffffffffffffffffffffffff16815260200190815260200160002060008473ffffffffffffffffffffffffffffffffffffffff1673ffffffffffffffffffffffffffffffffffffffff168152602001908152602001600020819055508173ffffffffffffffffffffffffffffffffffffffff168373ffffffffffffffffffffffffffffffffffffffff167f8c5be1e5ebec7d5bd14f71427d1e84f3dd0314c0f7b2291e5b200ac8c7c3b925836040516108cf919061150b565b60405180910390a3505050565b600073ffffffffffffffffffffffffffffffffffffffff168373ffffffffffffffffffffffffffffffffffffffff16141561094c576040517f08c379a0000000000000000000000000000000000000000000000000000000008152600401610943906114cb565b60405180910390fd5b600073ffffffffffffffffffffffffffffffffffffffff168273ffffffffffffffffffffffffffffffffffffffff1614156109bc576040517f08c379a00000000000000000000000000000000000000000000000000000000081526004016109b39061140b565b60405180910390fd5b600081116109ff576040517f08c379a00000000000000000000000000000000000000000000000000000000081526004016109f6906114ab565b60405180910390fd5b600080600080610a0e85610c62565b509350935093509350610a68846000808a73ffffffffffffffffffffffffffffffffffffffff1673ffffffffffffffffffffffffffffffffffffffff16815260200190815260200160002054610cb490919063ffffffff16565b6000808973ffffffffffffffffffffffffffffffffffffffff1673ffffffffffffffffffffffffffffffffffffffff16815260200190815260200160002081905550610afb836000808973ffffffffffffffffffffffffffffffffffffffff1673ffffffffffffffffffffffffffffffffffffffff16815260200190815260200160002054610cfe90919063ffffffff16565b6000808873ffffffffffffffffffffffffffffffffffffffff1673ffffffffffffffffffffffffffffffffffffffff16815260200190815260200160002081905550610b4682610d5c565b8573ffffffffffffffffffffffffffffffffffffffff168773ffffffffffffffffffffffffffffffffffffffff167fddf252ad1be2c89b69c2b068fc378daa952ba7f163c4a11628f55a4df523b3ef83604051610ba3919061150b565b60405180910390a350505050505050565b6000838311158290610bfc576040517f08c379a0000000000000000000000000000000000000000000000000000000008152600401610bf391906113e9565b60405180910390fd5b5060008385610c0b919061163e565b9050809150509392505050565b6000610c5a83836040518060400160405280601a81526020017f536166654d6174683a206469766973696f6e206279207a65726f000000000000815250610d7a565b905092915050565b6000806000806000806000610c7688610ddd565b915091506000806000610c918b85610c8c6105c3565b610e11565b925092509250828282878799509950995099509950505050505091939590929450565b6000610cf683836040518060400160405280601e81526020017f536166654d6174683a207375627472616374696f6e206f766572666c6f770000815250610bb4565b905092915050565b6000808284610d0d919061155d565b905083811015610d52576040517f08c379a0000000000000000000000000000000000000000000000000000000008152600401610d499061146b565b60405180910390fd5b8091505092915050565b610d7181600654610cb490919063ffffffff16565b60068190555050565b60008083118290610dc1576040517f08c379a0000000000000000000000000000000000000000000000000000000008152600401610db891906113e9565b60405180910390fd5b5060008385610dd091906115b3565b9050809150509392505050565b6000806000610deb84610e6f565b90506000610e028286610cb490919063ffffffff16565b90508082935093505050915091565b600080600080610e2a8588610ea090919063ffffffff16565b90506000610e418688610ea090919063ffffffff16565b90506000610e588284610cb490919063ffffffff16565b905082818395509550955050505093509350939050565b6000610e996064610e8b600a5485610ea090919063ffffffff16565b610c1890919063ffffffff16565b9050919050565b600080831415610eb35760009050610f15565b60008284610ec191906115e4565b9050828482610ed091906115b3565b14610f10576040517f08c379a0000000000000000000000000000000000000000000000000000000008152600401610f079061148b565b60405180910390fd5b809150505b92915050565b600081359050610f2a816117ca565b92915050565b600081359050610f3f816117e1565b92915050565b600060208284031215610f5757600080fd5b6000610f6584828501610f1b565b91505092915050565b60008060408385031215610f8157600080fd5b6000610f8f85828601610f1b565b9250506020610fa085828601610f1b565b9150509250929050565b600080600060608486031215610fbf57600080fd5b6000610fcd86828701610f1b565b9350506020610fde86828701610f1b565b9250506040610fef86828701610f30565b9150509250925092565b6000806040838503121561100c57600080fd5b600061101a85828601610f1b565b925050602061102b85828601610f30565b9150509250929050565b60006020828403121561104757600080fd5b600061105584828501610f30565b91505092915050565b61106781611684565b82525050565b600061107882611541565b611082818561154c565b93506110928185602086016116c7565b61109b816117b9565b840191505092915050565b60006110b360238361154c565b91507f45524332303a207472616e7366657220746f20746865207a65726f206164647260008301527f65737300000000000000000000000000000000000000000000000000000000006020830152604082019050919050565b6000611119602a8361154c565b91507f416d6f756e74206d757374206265206c657373207468616e20746f74616c207260008301527f65666c656374696f6e73000000000000000000000000000000000000000000006020830152604082019050919050565b600061117f60228361154c565b91507f45524332303a20617070726f766520746f20746865207a65726f20616464726560008301527f73730000000000000000000000000000000000000000000000000000000000006020830152604082019050919050565b60006111e5601b8361154c565b91507f536166654d6174683a206164646974696f6e206f766572666c6f7700000000006000830152602082019050919050565b600061122560218361154c565b91507f536166654d6174683a206d756c7469706c69636174696f6e206f766572666c6f60008301527f77000000000000000000000000000000000000000000000000000000000000006020830152604082019050919050565b600061128b60298361154c565b91507f5472616e7366657220616d6f756e74206d75737420626520677265617465722060008301527f7468616e207a65726f00000000000000000000000000000000000000000000006020830152604082019050919050565b60006112f160258361154c565b91507f45524332303a207472616e736665722066726f6d20746865207a65726f20616460008301527f64726573730000000000000000000000000000000000000000000000000000006020830152604082019050919050565b600061135760248361154c565b91507f45524332303a20617070726f76652066726f6d20746865207a65726f2061646460008301527f72657373000000000000000000000000000000000000000000000000000000006020830152604082019050919050565b6113b9816116b0565b82525050565b6113c8816116ba565b82525050565b60006020820190506113e3600083018461105e565b92915050565b60006020820190508181036000830152611403818461106d565b905092915050565b60006020820190508181036000830152611424816110a6565b9050919050565b600060208201905081810360008301526114448161110c565b9050919050565b6000602082019050818103600083015261146481611172565b9050919050565b60006020820190508181036000830152611484816111d8565b9050919050565b600060208201905081810360008301526114a481611218565b9050919050565b600060208201905081810360008301526114c48161127e565b9050919050565b600060208201905081810360008301526114e4816112e4565b9050919050565b600060208201905081810360008301526115048161134a565b9050919050565b600060208201905061152060008301846113b0565b92915050565b600060208201905061153b60008301846113bf565b92915050565b600081519050919050565b600082825260208201905092915050565b6000611568826116b0565b9150611573836116b0565b9250827fffffffffffffffffffffffffffffffffffffffffffffffffffffffffffffffff038211156115a8576115a761172c565b5b828201905092915050565b60006115be826116b0565b91506115c9836116b0565b9250826115d9576115d861175b565b5b828204905092915050565b60006115ef826116b0565b91506115fa836116b0565b9250817fffffffffffffffffffffffffffffffffffffffffffffffffffffffffffffffff04831182151516156116335761163261172c565b5b828202905092915050565b6000611649826116b0565b9150611654836116b0565b9250828210156116675761166661172c565b5b828203905092915050565b600061167d82611690565b9050919050565b60008115159050919050565b600073ffffffffffffffffffffffffffffffffffffffff82169050919050565b6000819050919050565b600060ff82169050919050565b60005b838110156116e55780820151818401526020810190506116ca565b838111156116f4576000848401525b50505050565b6000600282049050600182168061171257607f821691505b602082108114156117265761172561178a565b5b50919050565b7f4e487b7100000000000000000000000000000000000000000000000000000000600052601160045260246000fd5b7f4e487b7100000000000000000000000000000000000000000000000000000000600052601260045260246000fd5b7f4e487b7100000000000000000000000000000000000000000000000000000000600052602260045260246000fd5b6000601f19601f8301169050919050565b6117d381611672565b81146117de57600080fd5b50565b6117ea816116b0565b81146117f557600080fd5b5056fe45524332303a207472616e7366657220616d6f756e74206578636565647320616c6c6f77616e6365a2646970667358221220da5d2ac191553637df4bc27b4a2382d94aa0bfffc641f9b4b800814eac4ad93064736f6c63430008000033",
  "immutableReferences": {},
  "source": "// SPDX-License-Identifier: MIT\r\npragma solidity ^0.8.0;\r\n\r\n\r\n\r\n/**\r\n * @dev Wrappers over Solidity's arithmetic operations with added overflow\r\n * checks.\r\n *\r\n * Arithmetic operations in Solidity wrap on overflow. This can easily result\r\n * in bugs, because programmers usually assume that an overflow raises an\r\n * error, which is the standard behavior in high level programming languages.\r\n * `SafeMath` restores this intuition by reverting the transaction when an\r\n * operation overflows.\r\n *\r\n * Using this library instead of the unchecked operations eliminates an entire\r\n * class of bugs, so it's recommended to use it always.\r\n */\r\n \r\nlibrary SafeMath {\r\n    /**\r\n     * @dev Returns the addition of two unsigned integers, reverting on\r\n     * overflow.\r\n     *\r\n     * Counterpart to Solidity's `+` operator.\r\n     *\r\n     * Requirements:\r\n     *\r\n     * - Addition cannot overflow.\r\n     */\r\n    function add(uint256 a, uint256 b) internal pure returns (uint256) {\r\n        uint256 c = a + b;\r\n        require(c >= a, \"SafeMath: addition overflow\");\r\n\r\n        return c;\r\n    }\r\n\r\n    /**\r\n     * @dev Returns the subtraction of two unsigned integers, reverting on\r\n     * overflow (when the result is negative).\r\n     *\r\n     * Counterpart to Solidity's `-` operator.\r\n     *\r\n     * Requirements:\r\n     *\r\n     * - Subtraction cannot overflow.\r\n     */\r\n    function sub(uint256 a, uint256 b) internal pure returns (uint256) {\r\n        return sub(a, b, \"SafeMath: subtraction overflow\");\r\n    }\r\n\r\n    /**\r\n     * @dev Returns the subtraction of two unsigned integers, reverting with custom message on\r\n     * overflow (when the result is negative).\r\n     *\r\n     * Counterpart to Solidity's `-` operator.\r\n     *\r\n     * Requirements:\r\n     *\r\n     * - Subtraction cannot overflow.\r\n     */\r\n    function sub(uint256 a, uint256 b, string memory errorMessage) internal pure returns (uint256) {\r\n        require(b <= a, errorMessage);\r\n        uint256 c = a - b;\r\n\r\n        return c;\r\n    }\r\n\r\n    /**\r\n     * @dev Returns the multiplication of two unsigned integers, reverting on\r\n     * overflow.\r\n     *\r\n     * Counterpart to Solidity's `*` operator.\r\n     *\r\n     * Requirements:\r\n     *\r\n     * - Multiplication cannot overflow.\r\n     */\r\n    function mul(uint256 a, uint256 b) internal pure returns (uint256) {\r\n        // Gas optimization: this is cheaper than requiring 'a' not being zero, but the\r\n        // benefit is lost if 'b' is also tested.\r\n        // See: https://github.com/OpenZeppelin/openzeppelin-contracts/pull/522\r\n        if (a == 0) {\r\n            return 0;\r\n        }\r\n\r\n        uint256 c = a * b;\r\n        require(c / a == b, \"SafeMath: multiplication overflow\");\r\n\r\n        return c;\r\n    }\r\n\r\n    /**\r\n     * @dev Returns the integer division of two unsigned integers. Reverts on\r\n     * division by zero. The result is rounded towards zero.\r\n     *\r\n     * Counterpart to Solidity's `/` operator. Note: this function uses a\r\n     * `revert` opcode (which leaves remaining gas untouched) while Solidity\r\n     * uses an invalid opcode to revert (consuming all remaining gas).\r\n     *\r\n     * Requirements:\r\n     *\r\n     * - The divisor cannot be zero.\r\n     */\r\n    function div(uint256 a, uint256 b) internal pure returns (uint256) {\r\n        return div(a, b, \"SafeMath: division by zero\");\r\n    }\r\n\r\n    /**\r\n     * @dev Returns the integer division of two unsigned integers. Reverts with custom message on\r\n     * division by zero. The result is rounded towards zero.\r\n     *\r\n     * Counterpart to Solidity's `/` operator. Note: this function uses a\r\n     * `revert` opcode (which leaves remaining gas untouched) while Solidity\r\n     * uses an invalid opcode to revert (consuming all remaining gas).\r\n     *\r\n     * Requirements:\r\n     *\r\n     * - The divisor cannot be zero.\r\n     */\r\n    function div(uint256 a, uint256 b, string memory errorMessage) internal pure returns (uint256) {\r\n        require(b > 0, errorMessage);\r\n        uint256 c = a / b;\r\n        // assert(a == b * c + a % b); // There is no case in which this doesn't hold\r\n\r\n        return c;\r\n    }\r\n\r\n    /**\r\n     * @dev Returns the remainder of dividing two unsigned integers. (unsigned integer modulo),\r\n     * Reverts when dividing by zero.\r\n     *\r\n     * Counterpart to Solidity's `%` operator. This function uses a `revert`\r\n     * opcode (which leaves remaining gas untouched) while Solidity uses an\r\n     * invalid opcode to revert (consuming all remaining gas).\r\n     *\r\n     * Requirements:\r\n     *\r\n     * - The divisor cannot be zero.\r\n     */\r\n    function mod(uint256 a, uint256 b) internal pure returns (uint256) {\r\n        return mod(a, b, \"SafeMath: modulo by zero\");\r\n    }\r\n\r\n    /**\r\n     * @dev Returns the remainder of dividing two unsigned integers. (unsigned integer modulo),\r\n     * Reverts with custom message when dividing by zero.\r\n     *\r\n     * Counterpart to Solidity's `%` operator. This function uses a `revert`\r\n     * opcode (which leaves remaining gas untouched) while Solidity uses an\r\n     * invalid opcode to revert (consuming all remaining gas).\r\n     *\r\n     * Requirements:\r\n     *\r\n     * - The divisor cannot be zero.\r\n     */\r\n    function mod(uint256 a, uint256 b, string memory errorMessage) internal pure returns (uint256) {\r\n        require(b != 0, errorMessage);\r\n        return a % b;\r\n    }\r\n}\r\n\r\ninterface IERC20 {\r\n\r\n    function totalSupply() external view returns (uint256);\r\n\r\n    /**\r\n     * @dev Returns the amount of tokens owned by `account`.\r\n     */\r\n    function balanceOf(address account) external view returns (uint256);\r\n\r\n    /**\r\n     * @dev Moves `amount` tokens from the caller's account to `recipient`.\r\n     *\r\n     * Returns a boolean value indicating whether the operation succeeded.\r\n     *\r\n     * Emits a {Transfer} event.\r\n     */\r\n    function transfer(address recipient, uint256 amount) external returns (bool);\r\n\r\n    /**\r\n     * @dev Returns the remaining number of tokens that `spender` will be\r\n     * allowed to spend on behalf of `owner` through {transferFrom}. This is\r\n     * zero by default.\r\n     *\r\n     * This value changes when {approve} or {transferFrom} are called.\r\n     */\r\n    function allowance(address owner, address spender) external view returns (uint256);\r\n\r\n    /**\r\n     * @dev Sets `amount` as the allowance of `spender` over the caller's tokens.\r\n     *\r\n     * Returns a boolean value indicating whether the operation succeeded.\r\n     *\r\n     * IMPORTANT: Beware that changing an allowance with this method brings the risk\r\n     * that someone may use both the old and the new allowance by unfortunate\r\n     * transaction ordering. One possible solution to mitigate this race\r\n     * condition is to first reduce the spender's allowance to 0 and set the\r\n     * desired value afterwards:\r\n     * https://github.com/ethereum/EIPs/issues/20#issuecomment-263524729\r\n     *\r\n     * Emits an {Approval} event.\r\n     */\r\n    function approve(address spender, uint256 amount) external returns (bool);\r\n\r\n    /**\r\n     * @dev Moves `amount` tokens from `sender` to `recipient` using the\r\n     * allowance mechanism. `amount` is then deducted from the caller's\r\n     * allowance.\r\n     *\r\n     * Returns a boolean value indicating whether the operation succeeded.\r\n     *\r\n     * Emits a {Transfer} event.\r\n     */\r\n    function transferFrom(address sender, address recipient, uint256 amount) external returns (bool);\r\n\r\n    /**\r\n     * @dev Emitted when `value` tokens are moved from one account (`from`) to\r\n     * another (`to`).\r\n     *\r\n     * Note that `value` may be zero.\r\n     */\r\n    event Transfer(address indexed from, address indexed to, uint256 value);\r\n\r\n    /**\r\n     * @dev Emitted when the allowance of a `spender` for an `owner` is set by\r\n     * a call to {approve}. `value` is the new allowance.\r\n     */\r\n    event Approval(address indexed owner, address indexed spender, uint256 value);\r\n}\r\n\r\n\r\n\r\ncontract SafeMoon is IERC20{\r\n    using SafeMath for uint256;\r\n\r\n    mapping (address => uint256) private _rOwned;//the balance of an address in r-space\r\n    mapping (address => uint256) private _tOwned;//the balance of an address in t-space\r\n    mapping (address => mapping (address => uint256)) private _allowances;\r\n\r\n    mapping (address => bool) private _isExcludedFromFee;\r\n\r\n    mapping (address => bool) private _isExcluded;\r\n\r\n    uint256 private constant MAX = 10000 *10;//1 decimal\r\n    uint256 private _tTotal = 100 *10; \r\n    uint256 private _rTotal = (MAX - (MAX % _tTotal));\r\n\r\n    string private _name = \"SafeMoon\";\r\n    string private _symbol = \"SAFEMOON\";\r\n    uint8 private _decimals = 1;\r\n    \r\n    uint256 public _taxFee = 5;\r\n\r\n    constructor() {\r\n        _rOwned[msg.sender] = _rTotal; //100k\r\n        emit Transfer(address(0), msg.sender, _tTotal);\r\n    }\r\n\r\n    function balanceOf(address account) public view override returns (uint256) { \r\n        if (_isExcluded[account]) return _tOwned[account];\r\n        return tokenFromReflection(_rOwned[account]);\r\n    }\r\n    function tokenFromReflection(uint256 rAmount) public view returns(uint256) {\r\n        require(rAmount <= _rTotal, \"Amount must be less than total reflections\");\r\n        uint256 currentRate =  _getRate(); //99\r\n        //we go to t space 10\r\n        return rAmount.div(currentRate); //currentRate is getting lower the holder balance is bigger\r\n    }\r\n\r\n    function getRtotal() external view returns(uint256){\r\n        return _rTotal; //100k = rTotal\r\n    }\r\n\r\n    function transfer(address recipient, uint256 amount) public override returns (bool) {\r\n        _transfer( msg.sender, recipient, amount);\r\n        return true;\r\n    }\r\n\r\n    function _reflectFee(uint256 rFee) private {\r\n        _rTotal = _rTotal.sub(rFee); //we substract the fee charged in the tx (in R space) 100k - 500 = 99500\r\n    }\r\n\r\n    function _getValues(uint256 tAmount) private view returns (uint256, uint256, uint256, uint256, uint256) {\r\n        (uint256 tTransferAmount, uint256 tFee) = _getTValues(tAmount); //tTransferAmount=95, tFee=5\r\n        (uint256 rAmount, uint256 rTransferAmount, uint256 rFee) = _getRValues(tAmount, tFee, _getRate());\r\n        return (rAmount, rTransferAmount, rFee, tTransferAmount, tFee);\r\n    }\r\n\r\n    function _getTValues(uint256 tAmount) private view returns (uint256, uint256) {\r\n        uint256 tFee = calculateTaxFee(tAmount);  // 5\r\n        uint256 tTransferAmount = tAmount.sub(tFee); //100 - 5 = 95\r\n        return (tTransferAmount, tFee);\r\n    }\r\n\r\n    function _getRValues(uint256 tAmount, uint256 tFee,uint256 currentRate) private pure returns (uint256, uint256, uint256) {\r\n\r\n        //rate = 100\r\n        uint256 rAmount = tAmount.mul(currentRate); //100 * 100 = 10k\r\n        uint256 rFee = tFee.mul(currentRate);         //5*100 = 500\r\n        uint256 rTransferAmount = rAmount.sub(rFee); // 10k - 500 = 9500\r\n        return (rAmount, rTransferAmount, rFee);\r\n    }\r\n\r\n    function _getRate() public view returns(uint256) {\r\n        //RTOTAL/TTOTAL 100k / 1000 = 100\r\n        return _rTotal.div(_tTotal); //---> this value is getting lower\r\n    }\r\n\r\n\r\n    function calculateTaxFee(uint256 _amount) private view returns (uint256) {\r\n        return _amount.mul(_taxFee).div( //100 * 5 / 100 = 500 / 100 = 5\r\n            10**2\r\n        );\r\n    }\r\n\r\n    function _transfer(\r\n        address from, //account 1\r\n        address to, //account 2\r\n        uint256 amount //10 with 1 decimal = 100\r\n    ) private {\r\n        require(from != address(0), \"ERC20: transfer from the zero address\");\r\n        require(to != address(0), \"ERC20: transfer to the zero address\");\r\n        require(amount > 0, \"Transfer amount must be greater than zero\");\r\n\r\n        (uint256 rAmount, uint256 rTransferAmount, uint256 rFee, uint256 tTransferAmount,) = _getValues(amount);\r\n        //we work in R space, rAmount and rTransferAmount are decreasing but that does not mean they have less fees,\r\n        //because in the balance function we go to T space, so if you do 1 transaction and call the balance\r\n        //it will reflect the 5% of fee\r\n        _rOwned[from] = _rOwned[from].sub(rAmount); //100k - 10k = 90K\r\n        _rOwned[to] = _rOwned[to].add(rTransferAmount); //0 + 9500\r\n        _reflectFee(rFee);// _rTotal = _rTotal.sub(rFee); 100k - 500 = 99.5K -> new rate\r\n        emit Transfer(from, to, tTransferAmount);\r\n    }\r\n\r\n    \r\n\r\n\r\n    function transferFrom(address sender, address recipient, uint256 amount) public override returns (bool) {\r\n        _transfer(sender, recipient, amount);\r\n        _approve(sender, msg.sender, _allowances[sender][ msg.sender].sub(amount, \"ERC20: transfer amount exceeds allowance\"));\r\n        return true;\r\n    }\r\n\r\n\r\n    function approve(address spender, uint256 amount) public override returns (bool) {\r\n        _approve(msg.sender, spender, amount);\r\n        return true;\r\n    }\r\n\r\n    function _approve(address owner, address spender, uint256 amount) private {\r\n        require(owner != address(0), \"ERC20: approve from the zero address\");\r\n        require(spender != address(0), \"ERC20: approve to the zero address\");\r\n\r\n        _allowances[owner][spender] = amount;\r\n        emit Approval(owner, spender, amount);\r\n    }\r\n\r\n\r\n    function name() public view returns (string memory) {\r\n        return _name;\r\n    }\r\n\r\n    function symbol() public view returns (string memory) {\r\n        return _symbol;\r\n    }\r\n\r\n    function decimals() public view returns (uint8) {\r\n        return _decimals;\r\n    }\r\n\r\n    function totalSupply() public view override returns (uint256) {\r\n        return _tTotal;\r\n    }\r\n\r\n\r\n    function allowance(address owner, address spender) public view override returns (uint256) {\r\n        return _allowances[owner][spender];\r\n    }\r\n}",
  "sourcePath": "C:\\Users\\Femi\\Documents\\safemoon\\contracts\\SafeMoon.sol",
  "compiler": {
    "name": "solc",
    "version": "0.8.0+commit.c7dfd78e.Emscripten.clang"
  },
  "schemaVersion": "3.4.3",
  "updatedAt": "2021-10-06T13:13:50.374Z",
  "networkType": "ethereum",
  "devdoc": {
    "kind": "dev",
    "methods": {
      "allowance(address,address)": {
        "details": "Returns the remaining number of tokens that `spender` will be allowed to spend on behalf of `owner` through {transferFrom}. This is zero by default. This value changes when {approve} or {transferFrom} are called."
      },
      "approve(address,uint256)": {
        "details": "Sets `amount` as the allowance of `spender` over the caller's tokens. Returns a boolean value indicating whether the operation succeeded. IMPORTANT: Beware that changing an allowance with this method brings the risk that someone may use both the old and the new allowance by unfortunate transaction ordering. One possible solution to mitigate this race condition is to first reduce the spender's allowance to 0 and set the desired value afterwards: https://github.com/ethereum/EIPs/issues/20#issuecomment-263524729 Emits an {Approval} event."
      },
      "balanceOf(address)": {
        "details": "Returns the amount of tokens owned by `account`."
      },
      "transfer(address,uint256)": {
        "details": "Moves `amount` tokens from the caller's account to `recipient`. Returns a boolean value indicating whether the operation succeeded. Emits a {Transfer} event."
      },
      "transferFrom(address,address,uint256)": {
        "details": "Moves `amount` tokens from `sender` to `recipient` using the allowance mechanism. `amount` is then deducted from the caller's allowance. Returns a boolean value indicating whether the operation succeeded. Emits a {Transfer} event."
      }
    },
    "version": 1
  },
  "userdoc": {
    "kind": "user",
    "methods": {},
    "version": 1
  }
}